:100000000C94C2030C94D4030C94D4030C941D06DA
:100010000C944E210C94D4030C94D4030C94D4036C
:100020000C94D4030C9458190C94D4030C94871991
:100030000C94D4030C94D4030C94D4030C94D403E4
:100040000C9475180C94D4030C94841D0C94D31D3B
:100050000C94D4030C94D4030C94D4030C94D403C4
:100060000C94D4030C94D40386088F089208950846
:1000700098089B089E088D0B8D0B8D0BA40BB70B5E
:10008000C00BC90BD20BDB0BF20BFD0B060C0F0CDC
:10009000180C290C380C470C5A0C690C720C7B0C90
:1000A000840C8F0CE90DCA0DDD0E2E0E2E0E2E0EB9
:1000B000510ECA0DCA0DDD0E5B0EDD0E600E7C0EFC
:1000C0008A0EDD0EDD0EDD0EA10EB50EC90E340F4B
:1000D0008E0FF80FA410F80FA410AF10F2102A1E04
:1000E0002D1E301E331E361E391E3C1E3F1E421E64
:1000F000451E481E4B1EE11FF71FE41FE71FEA1FA6
:10010000ED1FF01FF31F084AD73B3BCE016E84BCA6
:10011000BFFDC12F3D6C74319ABD56833DDA3D0061
:10012000C77F11BED9E4BB4C3E916BAAAABE0000AA
:1001300000803F05A84CCDB2D44EB93836A9020C88
:1001400050B9918688083CA6AAAA2ABE0000008061
:100150003F000D0A4772626C20302E3863205B2707
:10016000242720666F722068656C705D0D0A00247C
:1001700024202876696577204772626C2073657445
:1001800074696E6773290D0A2423202876696577C0
:10019000202320706172616D6574657273290D0A88
:1001A0002447202876696577207061727365722014
:1001B0007374617465290D0A244E20287669657769
:1001C000207374617274757020626C6F636B732935
:1001D0000D0A24783D76616C75652028736176651B
:1001E000204772626C2073657474696E67290D0A0A
:1001F000244E783D6C696E652028736176652073A6
:1002000074617274757020626C6F636B290D0A24BF
:10021000432028636865636B2067636F6465206DA6
:100220006F6465290D0A245820286B696C6C206165
:100230006C61726D206C6F636B290D0A2448202855
:1002400072756E20686F6D696E67206379636C6587
:10025000290D0A7E20286379636C652073746172AE
:1002600074290D0A2120286665656420686F6C6416
:10027000290D0A3F202863757272656E74207374AD
:1002800061747573290D0A6374726C2D782028725D
:1002900065736574204772626C290D0A005D0D0A52
:1002A000002C005B4739323A005D0D0A002C003308
:1002B000303A0032383A0035393A0035383A0035AC
:1002C000373A0035363A0035353A0035343A005B76
:1002D00047005D0D0A00204600205400204D3800E4
:1002E000204D3900204D3500204D3400204D330085
:1002F000204D3200204D3100204D30002047393450
:100300000020473933002047393100204739300079
:100310002047323100204732300020473139002059
:100320004731380020473137002047005B473830DD
:10033000005B4733005B4732005B4731005B47306F
:10034000000D0A003D00244E003E0D0A002C00570F
:10035000506F733A002C002C4D506F733A003C43A1
:100360006865636B003C416C61726D003C486F6D69
:1003700065003C486F6C64003C52756E003C5175E2
:10038000657565003C49646C65005D0D0A00446953
:100390007361626C656400456E61626C6564004304
:1003A000617574696F6E3A20556E6C6F636B65642E
:1003B00000272448277C2724582720746F20756E37
:1003C0006C6F636B00526573657420746F20636F8C
:1003D0006E74696E7565005B002E204D506F733F23
:1003E0000D0A0041626F727420647572696E672035
:1003F0006379636C650048617264206C696D69742F
:1004000000414C41524D3A20002028686F6D696EC2
:10041000672070756C6C2D6F66662C206D6D290DD4
:100420000A002028686F6D696E67206465626F75C9
:100430006E63652C206D736563290D0A2432323D8D
:10044000002028686F6D696E67207365656B2C20CE
:100450006D6D2F6D696E290D0A2432313D00202803
:10046000686F6D696E6720666565642C206D6D2F01
:100470006D696E290D0A2432303D00290D0A2431A0
:10048000393D002028686F6D696E672064697220AD
:10049000696E76657274206D61736B2C20696E7461
:1004A0003A002028686F6D696E67206379636C6518
:1004B0002C20626F6F6C290D0A2431383D002028F2
:1004C00068617264206C696D6974732C20626F6F4F
:1004D0006C290D0A2431373D002028696E7665723B
:1004E00074207374657020656E61626C652C206287
:1004F0006F6F6C290D0A2431363D00202861757418
:100500006F2073746172742C20626F6F6C290D0AF6
:100510002431353D0020287265706F727420696E39
:10052000636865732C20626F6F6C290D0A24313467
:100530003D0020286E2D646563696D616C732C200D
:10054000696E74290D0A2431333D0020286E2D6117
:10055000726320636F7272656374696F6E2C2069B9
:100560006E74290D0A2431323D0020286172632CFB
:10057000206D6D2F7365676D656E74290D0A2431CA
:10058000313D0020286A756E6374696F6E20646562
:1005900076696174696F6E2C206D6D290D0A2431A6
:1005A000303D002028616363656C65726174696F1A
:1005B0006E2C206D6D2F7365635E32290D0A243910
:1005C0003D002028737465702069646C6520646543
:1005D0006C61792C206D736563290D0A24383D0008
:1005E000290D0A24373D0020287374657020706F30
:1005F000727420696E76657274206D61736B2C2045
:10060000696E743A00202864656661756C742073A5
:1006100065656B2C206D6D2F6D696E290D0A243672
:100620003D00202864656661756C742066656564AC
:100630002C206D6D2F6D696E290D0A24353D00202B
:1006400028737465702070756C73652C20757365E4
:1006500063290D0A24343D0020287A2C2073746508
:10066000702F6D6D290D0A24333D002028792C2030
:10067000737465702F6D6D290D0A24323D0020289A
:10068000782C20737465702F6D6D290D0A24313D0F
:100690000024303D000D0A00416C61726D206C6FCA
:1006A000636B0042757379206F7220717565756593
:1006B0006400454550524F4D20726561642066616B
:1006C000696C2E205573696E672064656661756C70
:1006D00074730056616C7565203C2033207573651A
:1006E000630056616C7565203C20302E30005365E8
:1006F0007474696E672064697361626C6564004933
:100700006E76616C69642073746174656D656E7476
:10071000004D6F64616C2067726F75702076696F31
:100720006C6174696F6E00496E76616C69642072E9
:10073000616469757300556E737570706F7274655E
:10074000642073746174656D656E740045787065BE
:100750006374656420636F6D6D616E64206C657495
:1007600074657200426164206E756D626572206608
:100770006F726D6174006572726F723A20006F6BF8
:100780000D0A000011241FBECFEFD8E0DEBFCDBFA1
:1007900026E0A0E0B1E001C01D92AC3EB207E1F757
:1007A0000E94402C0C94DC310C94000084B1817FB9
:1007B00084B985B18E6085B98091270183FF09C016
:1007C00080916B008E6080936B00809168008160E7
:1007D00008C080916B00817F80936B0080916800DE
:1007E0008E7F8093680008952F923F924F925F9280
:1007F0006F927F928F929F92AF92BF92CF92DF9231
:10080000EF92FF920F931F93CF93DF93CDB7DEB795
:10081000AC970FB6F894DEBF0FBECDBF382E6D87F4
:10082000242E098B1A8B2B8B3C8BFE0131968CE08E
:10083000DF011D928A95E9F730FE10C06091040136
:100840007091050180910601909107010E945E3030
:1008500069837A838B839C8311E001C010E031FEB1
:100860000FC01F5F609108017091090180910A011A
:1008700090910B010E945E306D837E838F839887F9
:1008800032FE0FC01F5F60910C0170910D018091CD
:100890000E0190910F010E945E3069877A878B87E5
:1008A0009C87F985EA853B852C854D815E816F812A
:1008B000788589819A81AB81BC8184179507A607C9
:1008C000B70710F4DB01CA01CF2EDE2EE32EF22E85
:1008D000C816D906EA06FB0610F46C017D01612FEB
:1008E00070E080E090E00E943A2E0E9430312B01AF
:1008F0003C01C701B6010E943A2EA30192010E9459
:10090000922D4B015C0120911F01309120014091FB
:100910002101509122010E94913020E030E84BE308
:1009200055E40E94922D0E94712D0E940B2E6DA302
:100930007EA38FA398A729893A894B895C89C30133
:10094000B2010E949130A50194010E9491309B0157
:10095000AC0160EC71EE84E69CE40E94922D0E9452
:100960005E302B013C01683FB4E27B07B1E08B07AE
:10097000910518F44B015C0107C038EF832E34E277
:10098000932EAA24A394B12C109128011C7180915C
:100990001A0118272D85211102C08CE11827D701D3
:1009A000C601B695A7959795879522273327A90164
:1009B000281B390B4A0B5B0B2D873E874F87588BC3
:1009C00080911101A5019401281B310941095109A8
:1009D00029A33AA34BA35CA38D859E85AF85B889D7
:1009E000898F9A8FAB8FBC8F8D8B9E8BAF8BB88F7F
:1009F00020E137E240E050E0298B3A8B4B8B5C8B57
:100A00001D8E1E8E1F8E18A200E4E3B1222011F06D
:100A10003EE0E32730FE2FC049815A816B817C8103
:100A20008D859E85AF85B889840F951FA61FB71F3A
:100A300089A79AA7ABA7BCA78D879E87AF87B88BDE
:100A4000181619061A061B06B4F4E1FF03C060E28B
:100A5000612704C0932D9E7F392E612F29A53AA5C9
:100A60004BA55CA52C193D094E095F092D873E87D2
:100A70004F87588B01C0612F31FE2CC08D819E8124
:100A8000AF81B8852D893E894F89588D820F931F7C
:100A9000A41FB51F89A79AA7ABA7BCA78D8B9E8B58
:100AA000AF8BB88F181619061A061B069CF4E2FFC6
:100AB00002C0602703C0332D3D7F332E89A59AA540
:100AC000ABA5BCA58C199D09AE09BF098D8B9E8B6A
:100AD000AF8BB88F32FE2CC029853A854B855C855B
:100AE000898D9A8DAB8DBC8D280F391F4A1F5B1FD6
:100AF00029A73AA74BA75CA7298F3A8F4B8F5C8F0A
:100B00001216130614061506B4F4E3FF02C060586B
:100B100003C0932D9B7F392E29A53AA54BA55CA533
:100B20002C193D094E095F09298F3A8F4B8F5C8F35
:100B3000332009F469C090913C0194FD65C09BB1DC
:100B40009F71862F807E892B8BB96091110170E097
:100B500080E090E00E94C8261BB969A17AA18BA110
:100B60009CA10E94C826481459046A047B0408F01A
:100B70004CCF89899A89AB89BC89880D991DAA1D9A
:100B8000BB1D898B9A8BAB8BBC8B81322EE4920779
:100B9000A105B10508F439CF80529E44A109B109DD
:100BA000898B9A8BAB8BBC8B8D8D9E8DAF8DB8A1B5
:100BB0002DA13EA14FA158A5820F931FA41FB51FC1
:100BC0008D8F9E8FAF8FB8A360E077E883E993E0C5
:100BD0002D8D3E8D4F8D58A10E949A3153014201B7
:100BE000421653066406750610F449015A018091B5
:100BF0001101A5019401281B31094109510929A3BB
:100C00003AA34BA35CA301CFAC960FB6F894DEBF1A
:100C10000FBECDBFDF91CF911F910F91FF90EF904D
:100C2000DF90CF90BF90AF909F908F907F906F900C
:100C30005F904F903F902F9008951F920F920FB6A4
:100C40000F9211242F933F934F935F936F937F9352
:100C50008F939F93AF93BF93EF93FF9380913B014B
:100C6000863059F080913C0185FD07C00E94112714
:100C700080913C01806480933C01FF91EF91BF9192
:100C8000AF919F918F917F916F915F914F913F9124
:100C90002F910F900FBE0F901F9018959F92AF92BB
:100CA000BF92CF92DF92EF92FF920F931F93CF9359
:100CB000DF935B018A017C01E40EF51EEC01912CAF
:100CC0006B01C81AD90AEC16FD06A9F0C6018C0FF3
:100CD0009D1F0E947C2C292D30E02115310531F417
:100CE000220F232F221F330B217001C021E0982EE9
:100CF000920E8993E8CFC501800F911F0E947C2C32
:100D000021E030E0981611F020E030E0C901DF91D9
:100D1000CF911F910F91FF90EF90DF90CF90BF90F8
:100D2000AF909F9008959F92AF92BF92CF92DF9223
:100D3000EF92FF920F931F93CF93DF935C01EB0130
:100D40007A016B01C40ED51E8C01912C692DCC1536
:100D5000DD05A9F070E06115710531F4660F672FAC
:100D6000661F770B617001C061E08991962E980E25
:100D7000682FC8010E94842C0F5F1F4FE7CFC50169
:100D80008E0D9F1DDF91CF911F910F91FF90EF90DE
:100D9000DF90CF90BF90AF909F900C94842CCF9316
:100DA000DF93CDB7DEB769970FB6F894DEBF0FBEFD
:100DB000CDBF8091C0008D7F8093C0001092C50090
:100DC00087E68093C4008091C10080618093C10058
:100DD0008091C10088608093C1008091C1008068CB
:100DE0008093C1000E947118853061F446E350E0A1
:100DF00061E070E084E091E00E944E06892B09F4E6
:100E0000DDC511C0853008F0D9C543E250E061E08E
:100E100070E084E091E00E944E06892B09F4CEC573
:100E200080E00E94C41C10E0BE016F5F7F4F812FE5
:100E30000E94631D811103C08AE00E94191E1F5F7A
:100E4000183091F78AB18C6F8AB98BB18370909109
:100E50001A01892B8BB9209A809181008F7E809313
:100E60008100809181008860809381008091800062
:100E70008D7F80938000809180008E7F80938000A2
:100E8000809180008F7380938000809180008F7CA0
:100E9000809380001092B0001092B1008091700099
:100EA0008160809370000E949B1C0E946F1978944F
:100EB00080E1EAE3F1E0DF011D928A95E9F781E044
:100EC00080933A0180933B013324339452E0952E72
:100ED00066E0262E80913A01882309F498C080911B
:100EE000D4018093D3018091FC058093FB05809110
:100EF000FC058F5F823109F480E0809368068CE105
:100F0000E9E6F6E011928A95E9F785E3A5E8B6E00F
:100F10001D928A95E9F78091120190911301A09199
:100F20001401B091150180938D0690938E06A093C5
:100F30008F06B093900630929F069092A006309252
:100F4000890662EA76E080E00E94631D811103C099
:100F50008AE00E94191E109201011092000182E5A0
:100F600091E00E94912487B1887F87B988B187601A
:100F700088B980916C00876080936C0080916800D4
:100F800082608093680010920201249A259A2C981E
:100F9000109203013B9A43980E94D60384E2E0E05A
:100FA000F6E011928A95E9F760E273E080E090E064
:100FB0000E94FB181092FE051092FD051092FF058D
:100FC0000E94642610923A0110923C018091270100
:100FD00081FD3092490190913B01913019F484FDDB
:100FE00020923B0180913B01863069F487ED93E0CC
:100FF0000E94912481EB93E00E9491248AE893E07F
:101000000E94912404C010923B010E94A0240E94DF
:10101000631F9091D3018091D401891709F45ACFAD
:10102000E92FF0E0ED5AFE4F80819F5F903819F074
:101030009093D30102C01092D3018F3F09F44ACF9D
:101040008A3019F08D3009F090C40E94631F80919E
:101050003A01811139CFE0910101EE2309F47AC4FC
:10106000F0E0E654F94F10828091BA06843209F01C
:1010700069C4398A8091BB06833409F483C14CF476
:10108000833201F18432A1F08111D2C28FE691E066
:1010900076C1883409F4B3C124F4873409F4ADC0AF
:1010A000C7C28E3409F48CC2883509F48FC1C0C21E
:1010B000998A8091BC06882311F083E051C40E9474
:1010C000541E48C4998A8091BC068111F6CF10E065
:1010D000BE016F5F7F4F812F0E94631D811104C08D
:1010E0008AE00E94191E36C48FEC92E00E9491247F
:1010F000812F90E0FC013197E730F10520F4EC5CA2
:10110000FF4F0C94BC318BEC92E002C087EC92E074
:101110000E949124CE0101967C0100E025C083EC61
:1011200092E0F6CF8FEB92E0F3CF8BEB92E0F0CF33
:1011300087EB92E0EDCF83EB92E0EACF8FEA92E08B
:10114000E7CFF70160817181828193810E94402302
:101150000230D1F08DEA92E00E9491240F5FF4E01A
:10116000EF0EF11C033099F08091270180FFE9CF49
:101170002BE832E441E25DE3D7016D917D918D91E1
:101180009C910E949130E2CF89EA92E0E5CF1F5F07
:10119000183009F09DCF83EA92E00E94912445E83F
:1011A000E42E46E0F42E10E08091270180FF0EC06F
:1011B0002BE832E441E25DE3D70199966D917D9190
:1011C0008D919C919C970E94913005C0F70161A57B
:1011D00072A583A594A50E944023123019F081EADC
:1011E00092E002C08DE992E00E9491241F5FF4E03A
:1011F000EF0EF11C1330C1F6ADC3998A8091BC0685
:1012000081115BCF80918606823091F038F488237B
:1012100061F08130A1F489E393E00FC0833059F08D
:10122000843069F48CE293E008C08DE393E005C05C
:1012300085E393E002C081E393E00E94912489E278
:1012400093E00E9491246091A10670E06A5C7F4F58
:10125000072E000C880B990B0E94EA2380919E06B2
:1012600081110AC080919F06813019F484E293E0D5
:1012700005C08FE193E002C08AE193E00E949124CF
:1012800080918806882319F085E193E002C080E10F
:1012900093E00E94912480918906882319F08BE0C5
:1012A00093E002C086E093E00E949124809187063B
:1012B000882319F081E093E002C08CEF92E00E9455
:1012C000912480918A06813049F028F0823051F4CF
:1012D00080EF92E005C088EF92E002C084EF92E0D8
:1012E0000E94912480918B06882351F0813029F04F
:1012F0008F3F51F488EE92E005C08CEE92E002C080
:1013000084EE92E00E94912480918C06882329F03B
:10131000813039F48CED92E002C080EE92E00E94C0
:10132000912489ED92E00E94912460919D0670E0E5
:1013300080E090E00E94EA2386ED92E00E949124F2
:1013400080918806882379F02BE832E441E25DE35E
:1013500060918D0670918E0680918F069091900617
:101360000E94913008C060918D0670918E06809128
:101370008F06909190060E94402382ED92E00E9499
:101380009124E8C2998A8091BC06811196CE809101
:101390003B01873049F40E94112787ED93E00E94BA
:1013A00091248EE893E00DC0882311F08BE0D8C221
:1013B00027E020933B0187ED93E00E94912487E989
:1013C00093E00E9491248AE893E0D9CF998A809192
:1013D000BC06811172CE80913B01863009F0BAC201
:1013E00087ED93E00E9491248FE993E00E9491247D
:1013F0008AE893E00E94912410923B01ABC2809155
:10140000270184FF97C280913B01882311F0863029
:1014100069F685E080933B0180916B00817F80932A
:101420006B000E949B1C00912D0110912E012091B8
:101430002F013091300140E061E084E00E94F4032C
:1014400000912D0110912E0120912F01309130013A
:1014500040E061E083E00E94F403809131019091CB
:1014600032010E94062732E0F32EFA9400912901FE
:1014700010912A0120912B0130912C0141E060E074
:1014800087E00E94F40380913101909132010E9423
:10149000062791E0F91619F0FF20A9F0E6CF009198
:1014A000290110912A0120912B0130912C0140E05B
:1014B00061E087E00E94F403809131019091320154
:1014C0000E940627D2CF0E946F190E94631F80914D
:1014D0003A0181113FC2ADE3B1E0ECE01D92EA9523
:1014E000E9F70E94642610923B018091280182FD59
:1014F00002C01FEF01C011E083FD02C00FEF01C069
:1015000001E084FD02C06FEF01C061E04090330153
:10151000509034016090350170903601A0902D01FB
:10152000B0902E01C0902F01D0903001062E000CFB
:10153000770B880B990B0E943C2EA30192010E940D
:1015400091306A8B7B8B8C8B9D8B602F000F770B80
:10155000880B990B0E943C2EA30192010E949130AE
:101560006E8B7F8B888F998F612F110F770B880B74
:10157000990B0E943C2EA30192010E949130812C74
:10158000EA88FB880C891D892E893F89488D598DF1
:101590000E9429270E94BF180E94D0240E9464261E
:1015A0008091270183FF05C080916B008E6080933E
:1015B0006B0080913A018111CDC10E94A024CAC163
:1015C000998A8091BC06811135C0C12CD12C76013D
:1015D0008C2D0E945118811104C08AE00E94191EAE
:1015E0001AC086E493E00E949124C701B6010E94CC
:1015F000EA2384E493E00E9491240AEB16E0D801E8
:101600008D918D01882319F00E94FD1DF8CF81E492
:1016100093E00E949124BFEFCB1ADB0AEB0AFB0A8E
:10162000E2E0CE16D104E104F10409F493C1D0CF75
:1016300010E001C011E0BE01635F7F4FCE01419613
:101640000E94632B892B11F481E08AC1E98981E032
:101650008E0F898BF0E0E654F94F90819D3309F0AD
:101660002CCD112381F1482F50E0282F30E0D901F3
:10167000A654B94F9C91241B350BF901E654F94F40
:1016800090838F5F9C919111F0CF898B80913B016A
:10169000863009F464C10E94E70C811159C16D853F
:1016A0007E858F8598890E9474310E940B2EF3E30A
:1016B0006F9FC001112442E350E06AEB76E09D5F2A
:1016C0000E94930647C1BE016F5F7F4FCE014196D6
:1016D0000E94632B892B09F4B7CFE989F0E0E65427
:1016E000F94F80818111E9CCC980DA80EB80FC80E0
:1016F0006D857E858F8598890E94042E2B013C0183
:10170000CB01770FAA0BBB0B8731910508F014C1F1
:10171000FC01E55CFF4F0C94BC3120E030E0A901F6
:10172000C701B6010E94882D18160CF007C1C2012E
:10173000880F991F880F991FFC01EC5FFE4FC08234
:10174000D182E282F382F3C020E030E040E450E452
:10175000C701B6010E94882D87FDF2C0C701B601FE
:101760000E94FE300E940B2E60931101E0C0C092D7
:101770001201D0921301E0921401F0921501D7C02A
:10178000C0921601D0921701E0921801F09219014F
:10179000CEC0C701B6010E9474310E940B2E609327
:1017A0001A01C5C0C701B6010E94FE300E940B2E6F
:1017B00060933701BCC020E030E040E752E4C7014D
:1017C000B6010E94913020E030E040E752E40E94F0
:1017D000913060931F0170932001809321019093B9
:1017E0002201A5C0E894F7F8C0922301D092240109
:1017F000E0922501F09226019AC0C0921B01D0927E
:101800001C01E0921D01F0921E0191C0C701B601BA
:101810000E94FE300E940B2E6093390188C0C701E0
:10182000B6010E94FE300E940B2E609338017FC0EB
:1018300020E030E0A901C701B6010E94882D9091F7
:101840002701882311F0916001C09E7F90932701AA
:101850006EC020E030E0A901C701B6010E94882DCA
:1018600090912701882311F09260F0CF9D7FEECFF9
:1018700020E030E0A901C701B6010E94882D9091B7
:101880002701882311F09460E1CF9B7FDFCF20E018
:1018900030E0A901C701B6010E94882D909127016F
:1018A000882311F0986001C0977F909327010E94D0
:1018B000D6033DC020E030E0A901C701B6010E9477
:1018C000882D90912701882311F09061BFCF9F7ED2
:1018D000BDCFC701B6010E9474310E940B2E6093E8
:1018E000280125C0C0922901D0922A01E0922B0143
:1018F000F0922C011CC0C0922D01D0922E01E092DA
:101900002F01F092300113C0C701B6010E94FE30D2
:101910000E940B2E709332016093310108C0C09277
:101920003301D0923401E0923501F09236010E94E9
:10193000B71C10C087E014C086E012C088E010C059
:1019400089E00EC080913B01863049F00E94E70C8F
:10195000811106C08EE797E00E94912403C08CE0BD
:101960000E94191E1092010107C090910001992355
:1019700031F0893209F04DCB109200014ACB81320F
:1019800008F447CB8F3209F444CB883219F43092F3
:1019900000013FCB20910101213308F03ACB41E017
:1019A000420F30E09FE9980F40930101F901E6549E
:1019B000F94F9A3108F4805280832BCB8AE00E9441
:1019C000191E81E00E94C41C0E94541E2CCA2F9232
:1019D0003F924F925F926F927F928F929F92AF92BF
:1019E000BF92CF92DF92EF92FF920F931F93CF930C
:1019F000DF93CDB7DEB7CB55D1090FB6F894DEBF74
:101A00000FBECDBF1AA6FE0179968CE0DF01282F0C
:101A10001D922A95E9F73C97DF011D928A95E9F717
:101A2000109285061BA6912C212C312CCC24C3941A
:101A3000D12C15E0B12E01E082E0F82E93E0E92EE2
:101A400024E0A22EAE01465D5F4FBE016B5D7F4F6D
:101A5000CE0189960E94192C892B09F482C04DA0D1
:101A60005EA06FA078A4C301B2010E9474310E94ED
:101A7000042ECB0129A5273421F02D3409F45BC0B5
:101A8000E1CF6E31710511F40C946D161CF56431C3
:101A90007105B4F46131710514F00C947C17643055
:101AA000710511F40C946D1624F477FF38C00C9472
:101AB00058166A30710511F40C946D160C94581672
:101AC0006631710594F16C31710511F00C94581662
:101AD0000C946D166C357105ACF46A35710514F50E
:101AE0006C33710554F46633710514F56533710573
:101AF00011F40C946D160C9458166035710579F03C
:101B00000C9458166C35710511F40C946D166F35E4
:101B1000710514F00C94581616E00C946E1612E031
:101B20000C946E1614E00C946E1617E00C946E165E
:101B300019E00C946E16663071054CF46330710533
:101B40006CF477FF02C00C9405180C94CB176E311F
:101B5000710511F40C94CB170C94051818E00C9433
:101B6000CC178091850681110C9437181AA600E0D5
:101B70001CA61DA61EA61FA6412C512C320118AE74
:101B800019AE40E84AAF5FEB5BAF10E0F3E0AF2E79
:101B9000A6E08A2EAE01465D5F4FBE016B5D7F4FB2
:101BA000CE0189960E94192C892B09F409C1E9A458
:101BB0008E2D0E2C000C990BAA0BBB0BFC01E654CE
:101BC000F109E531F10508F0F8C0EE5AFF4F0C9429
:101BD000BC31BDA0CEA0EFA0F8A420E030E0A90168
:101BE0006B2D7C2DC7010E94882D181614F0809251
:101BF000850690918706809188069923A9F0811126
:101C000005C0B8AEC9AEEAAEFBAEC4CF23E333E342
:101C10004BEC51E46B2D7C2DC7010E94913068AFD5
:101C200079AF8AAF9BAFB6CF882351F023E333E37C
:101C30004BEC51E46B2D7C2DC7010E94913003C009
:101C40006B2D7C2DC7016B017C01C0928D06D0925B
:101C50008E06E0928F06F09290069CCF0E2C000C20
:101C6000FF0889E4E81AF1086DA17EA18FA198A56B
:101C700020918806222331F023E333E34BEC51E437
:101C80000E949130EE0CFF1CEE0CFF1CE1E0F0E036
:101C9000EC0FFD1FEE0DFF1D648775878687978704
:101CA00079CF6DA17EA18FA198A50E9474310E9469
:101CB0000B2E062F6FCF4DA05EA06FA078A46ACF29
:101CC0002DA13EA14FA158A52CA73DA74EA75FA7C8
:101CD00080918806882309F45DCF23E333E34BEC3E
:101CE00051E46CA57DA58EA59FA50E9491306CA79F
:101CF0007DA78EA79FA74ECF20E030E0A9016DA160
:101D00007EA18FA198A50E94882D87FF43CF809246
:101D1000850640CFCDA0DEA0EFA0F8A420E030E003
:101D2000A901C701B6010E94882D87FD8092850612
:101D3000C701B6010E9474310E940B2E60939D066C
:101D400029CF6DA17EA18FA198A52091880622237D
:101D500031F023E333E34BEC51E40E949130698F7F
:101D60007A8F8B8F9C8F116015CF6DA17EA18FA173
:101D700098A520918806222331F023E333E34BEC2E
:101D800051E40E9491306D8F7E8F8F8F98A31260E7
:101D900001CF6DA17EA18FA198A520918806222355
:101DA00031F023E333E34BEC51E40E94913069A31B
:101DB0007AA38BA39CA31460EDCEA0928506EACEF5
:101DC0008091850681110C94371880913B018730F2
:101DD00049F1F0908B062F2D0F2C000C330B8091C6
:101DE000020190E02817390769F00E94D024FF20F3
:101DF00031F014F02D9801C02D9A2C9A01C02C9826
:101E0000F0920201F0908C0680910301F81651F0D7
:101E10000E94D02431E0F31202C0439A01C04398DB
:101E2000F092030131FE13C0BE016F5F7F4F8091BE
:101E3000A1060E94631D882309F4DCC18CE0FE0129
:101E40003196A2EAB6E001900D928A95E1F74BA592
:101E5000842F90E0FC013197E830F10508F0CCC107
:101E6000E959FF4F0C94BC3120E030E0A901C301D7
:101E7000B2010E94882D87FF04C086E0809385060A
:101E8000BBC180913B01873009F4B6C120E030E04E
:101E900040EA51E4C301B2010E9491300E94772EC2
:101EA0000E940B2E6B017C010E94D02420E030E0C8
:101EB0004AE754E4C301B2010E9491302B013C0176
:101EC00082E38C9DB0018D9D700D112480E090E027
:101ED0000E943A2E9B01AC01C301B2010E94922CD8
:101EE0000E94772E0E940B2ECB010E940627C11460
:101EF000D10409F481C10E94631F51E0C51AD108C1
:101F000080913A01811178C18FEF90E7A2E0815072
:101F10009040A040E1F700C00000E9CFC301B2014A
:101F20000E947431023011F0043151F40E94042EE9
:101F30007B01B1E0EB1AF108E6E0EE16F10410F0D7
:101F400083E005C0111106C0023021F486E08093C1
:101F50008506F8C0043181F461E976E08E2D0E9497
:101F60005A1D8091A10690E0E816F90609F0EAC032
:101F70008CE0E1E9F6E039C0BE016F5F7F4F8E2D46
:101F80000E94631D882309F435C1DE015996FE01C4
:101F9000319680E090E0212F30E0A901082E02C0A8
:101FA000559547950A94E2F740FF09C04D915D9120
:101FB0006D917C9113974083518362837383019663
:101FC000149634968330910541F7BE016F5F7F4FC1
:101FD0008E2D0E945A1D8091A10690E0E816F90608
:101FE00009F0B0C08CE0FE013196A2EAB6E0A6C0CE
:101FF000112309F479C0809089067E01F9E1EF0E82
:10200000F11C65E8C62E66E0D62EA12CB12C012F5E
:1020100010E0C8010A2C02C0959587950A94E2F752
:1020200080FF33C08820F9F0D60199962D913D911B
:102030004D915C919C975D966D917D918D919C9158
:1020400090970E94932C9B01AC01F70160817181F4
:10205000828193810E94932CD7016D937D938D9300
:102060009C9313971CC0F6012485358546855785BA
:10207000D7016D917D918D919C910E94932CF701D8
:1020800060837183828393830AC0F601848595857A
:10209000A685B785F70180839183A283B383FFEF81
:1020A000AF1ABF0A24E0E20EF11C34E0C30ED11CCB
:1020B00043E0A416B10409F0ACCFA0901601B09093
:1020C0001701C0901801D0901901E9A0FAA00BA146
:1020D0001CA12D8D3E8D4F8D58A1698D7A8D8B8DD4
:1020E0009C8D812C0E9429275BA5553011F086E03C
:1020F00001C087E0BE016F5F7F4F0E94631D882390
:1021000009F478C0A0901601B0901701C090180192
:10211000D0901901E984FA840B851C852D813E81BC
:102120004F81588569817A818B819C81812C0E94A5
:1021300029278CE0FE013196A1E9B6E001900D92CD
:102140008A95E1F710E058C08BA5863011F086E043
:1021500001C087E061E976E00E945A1D4DC011235D
:1021600009F4F4CE55E8E52E56E0F52E5E0199E12E
:10217000A90EB11CC12CD12C012F10E0C8010C2CD0
:1021800002C0959587950A94E2F780FF1DC0D7019C
:102190005D962D913D914D915C9190971C966D911E
:1021A0007D918D919C911F970E94922CF501208129
:1021B0003181428153810E94922CD70199966D936F
:1021C0007D938D939C939C97BFEFCB1ADB0AE4E041
:1021D000EE0EF11CF4E0AF0EB11C23E0C216D104E8
:1021E00069F6B0CF8CE0EEEAF6E0DF011D928A9549
:1021F000E9F702C08AE03BC722FC03C0112309F4BF
:1022000041C5B0918706BBA7BB23D1F020E030E0E9
:10221000A90168AD79AD8AAD9BAD0E94882D87FF7D
:102220000FC080918606843071F086E08093850629
:10223000992009F43BC580918606823030F408C0AD
:102240009110F9CF05C0992019F086E0809385069A
:102250008091850681110BC7009189067E01E9E115
:10226000EE0EF11C45E8C42E46E0D42EA12CB12C74
:10227000612E712CC3010A2C02C0959587950A9492
:10228000E2F780FF35C091103DC00023F9F0D60180
:1022900099962D913D914D915C919C975D966D9194
:1022A0007D918D919C9190970E94932C9B01AC0104
:1022B000F70160817181828193810E94932CD70103
:1022C0006D937D938D939C9313971CC0F601248589
:1022D000358546855785D7016D917D918D919C916E
:1022E0000E94932CF70160837183828393830AC0D9
:1022F000F60184859585A685B785F701808391834E
:10230000A283B383FFEFAF1ABF0A24E0E20EF11CF1
:1023100034E0C30ED11C43E0A416B10409F0AACFE7
:10232000509186065CAB543040F4523008F04CC0FB
:10233000552371F0513021F198C48CA9843009F0F3
:1023400094C4112309F491C486E0809385068DC45A
:102350001123D1F3A0901601B0901701C09018017D
:10236000D0901901E9A0FAA00BA11CA12D8D3E8DE2
:102370004F8D58A1698D7A8D8B8D9C8D812C73C466
:10238000112311F39BA5911109C0B0918D06A09165
:102390008E06F0918F06E091900604C0B8ADA9AD0D
:1023A000FAADEBADE9A0FAA00BA11CA12D8D3E8DDD
:1023B0004F8D58A1698D7A8D8B8D9C8D8BA4AB2E02
:1023C000BA2ECF2EDE2E4FC4A091A006A8ABEA2FC6
:1023D000F0E06096FFAFEEAF609781E090E001C063
:1023E000880FAA95EAF78095182309F4ADCF20E06D
:1023F00030E0A9016CA57DA58EA59FA50E94882D22
:1024000090919E0681112EC0E1E0F0E0EC0FFD1FDF
:1024100024E0929FE00DF11D1124C484D584E6844C
:10242000F78420E030E0A901C701B6010E94882DA1
:1024300010919F06811100C120E030E0A901E1E088
:10244000F0E0EC0FFD1F84E0189FE00DF11D11245A
:1024500064857585868597850E94882D882309F473
:1024600073CFEAC0892F90E08C01000F111F000F7D
:10247000111FA1E0B0E0AC0FBD1FA00FB11FF8010C
:10248000EF56F94F208131814281538158966D91E9
:102490007D918D919C915B970E94922C4B015C01E8
:1024A00080919F0690E01C01220C331C220C331CEF
:1024B000E1E0F0E0EC0FFD1FE20DF31DD101AF569E
:1024C000B94F2D913D914D915C91608D718D828DB3
:1024D000938D0E94922C2B013C01FE013D968CE0D5
:1024E000DF011D928A95E9F720E030E040E850E4F2
:1024F0006CA57DA58EA59FA50E9491302CA53DA51C
:102500004EA55FA50E9491306B017C01A50194014D
:10251000C501B4010E9491309B01AC01C701B60115
:102520000E94922C6B017C01A3019201C301B201B4
:102530000E9491309B01AC01C701B6010E94922C10
:102540006B017C0120E030E0A9010E94882D87FF0B
:1025500004C084E0809385068AC5C701B6010E9445
:1025600030316B017C01A3019201C501B4010E94CD
:10257000BD2F9B01AC01C701B60190580E94922D5E
:102580006B017C01BCA9B33021F4F7FAF094F7F8A1
:10259000F09420E030E0A9016CA57DA58EA59FA553
:1025A0000E94882D87FF0DC0F7FAF094F7F8F09499
:1025B0002CA53DA54EA55FA550582CA73DA74EA71D
:1025C0005FA741E050E04C0F5D1F040F151FA701EE
:1025D0009601C301B2010E9491309B01AC01C5017B
:1025E000B4010E94922C20E030E040E05FE30E94C2
:1025F0009130D8011C966D937D938D939C931F977A
:1026000001E010E00C0F1D1F020D131DA701960124
:10261000C501B4010E949130A30192010E94932C44
:1026200020E030E040E05FE30E949130F8016487F1
:1026300075878687978715C0E1E0F0E0EC0FFD1FF6
:1026400024E0129FE00DF11D112424853585468577
:102650005785C701B6010E94BD2F6CA77DA78EA725
:102660009FA73BA531110CC040918D0648AF5091FA
:102670008E0659AF80918F068AAF909190069BAFDE
:10268000A0919F06ACAFB0919E062196BFAF219757
:10269000E4E0BE9F800111242DE030E02C0F3D1FAF
:1026A000200F311F62963FAF2EAF6297D9018D90F8
:1026B0009D90AD90BC90F801EF56F94F208131818B
:1026C00042815381C501B4010E94932C66966CAF80
:1026D0007DAF8EAF9FAF6697ECADB4E0EB9F10017E
:1026E00011242DE030E02C0F3D1F220D331D689684
:1026F0003FAF2EAF6897D901CD90DD90ED90FC9063
:10270000F101EF56F94F2081318142815381C70198
:10271000B6010E94932C6C966CAF7DAF8EAF9FAFCD
:102720006C97E8A9B4E0EB9FC0011124FC01EF56BF
:10273000F94F20813181428153812A962CAF3DAFE0
:102740004EAF5FAF2A97E9E1F0E0EC0FFD1FE80F15
:10275000F91F60817181828193810E94922C2E9653
:102760006CAF7DAF8EAF9FAF2E972401350177FA06
:10277000709477F87094D701C601B05888AB99ABC4
:10278000AAABBBABE9E1F0E0EC0FFD1FE00FF11FDE
:1027900066962CAD3DAD4EAD5FAD669760817181A3
:1027A000828193810E94922C6B017C01E9E1F0E02F
:1027B000EC0FFD1FE20DF31D6C962CAD3DAD4EAD43
:1027C0005FAD6C9760817181828193810E94922CB0
:1027D0004B015C01A7019601C301B2010E94913037
:1027E00026966CAF7DAF8EAF9FAF2697A501940163
:1027F00068A979A98AA99BA90E9491309B01AC0183
:1028000026966CAD7DAD8EAD9FAD26970E94932C24
:1028100026966CAF7DAF8EAF9FAF2697A501940132
:10282000C301B2010E9491304B015C01A7019601E6
:1028300068A979A98AA99BA90E9491309B01AC0142
:10284000C501B4010E94922C26962CAD3DAD4EAD33
:102850005FAD26970E94122D6B017C019CA920E0A0
:1028600030E0A901923079F4C701B6010E94AA2F85
:1028700087FD19C02BED3FE049EC50E4C701B601DC
:102880000E94922C0EC0C701B6010E94882D181616
:1028900054F02BED3FE049EC50E4C701B6010E9433
:1028A000932C6B017C01A70196016CA57DA58EA5DB
:1028B0009FA50E9491302E962CAD3DAD4EAD5FADE3
:1028C0002E975F770E94BD2F4B015C0120E030E026
:1028D000A9010E94882D882309F4C7C120911B01FA
:1028E00030911C0140911D0150911E01C501B401A0
:1028F0000E94922D0E94772E0E940B2E24967FAF6D
:102900006EAF24974B01A12CB12CABA5AA2381F06B
:10291000C501B4010E943A2E9B01AC0168AD79ADAE
:102920008AAD9BAD0E94913068AF79AF8AAF9BAF03
:10293000C501B4010E943A2E4B015C019B01AC0120
:10294000C701B6010E94922D6CA77DA78EA79FA7F5
:10295000A50194012E966CAD7DAD8EAD9FAD2E97E9
:102960000E94922D2E966CAF7DAF8EAF9FAF2E97AB
:1029700020E030E040E05FE36CA57DA58EA59FA53B
:102980000E9491302CA53DA54EA55FA50E949130D7
:102990009B01AC0160E070E080E89FE30E94922C14
:1029A0006CAB7DAB8EAB9FAB6096EEADFFAD609731
:1029B000EE0FFF1FEE0FFF1F21E030E02C0F3D1F39
:1029C000E20FF31F2A968CAD9DADAEADBFAD2A9739
:1029D00080839183A283B383912C22242394312C6E
:1029E000D90121963FAD219724E0329FA00DB11D62
:1029F00011242896BFAFAEAF289741E050E04C0FAE
:102A00005D1F9CAD84E0989F400D511D1124609680
:102A10005FAF4EAF60972296FFAFEEAF229724963E
:102A2000AEADBFAD24972A163B0608F00BC18091CE
:102A3000390190E0292D092C000C330B2817390798
:102A4000F4F528A939A94AA95BA96CA97DA98EA981
:102A50009FA90E9491306B017C01A30192016CA59A
:102A60007DA58EA59FA50E949130A70196010E9489
:102A7000932C5B018C01A30192016CA97DA98EA905
:102A80009FA90E9491306B017C0128A939A94AA90C
:102A90005BA96CA57DA58EA59FA50E9491309B0189
:102AA000AC01C701B6010E94922C2B013C0193940A
:102AB00065017801C8AAD9AAEAAAFBAA68C0B1012F
:102AC00080E090E00E943A2E2CA53DA54EA55FA582
:102AD0000E9491306B017C010E948D2D68AB79AB17
:102AE0008AAB9BABC701B6010E9422314B015C014E
:102AF0006296EEADFFAD6297C080D180E280F38038
:102B0000F7FAF094F7F8F0946896AEADBFAD689719
:102B10002D913D914D915C912CAF3DAF4EAF5FAF8C
:102B2000A701960168A979A98AA99BA90E94913059
:102B30002B013C012CAD3DAD4EAD5FADC501B401E7
:102B40000E9491309B01AC01C301B2010E94932C01
:102B50002B013C01A7019601C501B4010E949130EF
:102B60006B017C012CAD3DAD4EAD5FAD68A979A97F
:102B70008AA99BA90E9491309B01AC01C701B601B3
:102B80000E94922C68AB79AB8AAB9BAB912CA301D2
:102B9000920166966CAD7DAD8EAD9FAD66970E943D
:102BA000932C2896EEADFFAD2897608371838283C6
:102BB000938328A939A94AA95BA96C966CAD7DAD10
:102BC0008EAD9FAD6C970E94932C6096AEADBFAD5D
:102BD00060976D937D938D939C9313972E962CAD58
:102BE0003DAD4EAD5FAD2E972296EEADFFAD229777
:102BF00060817181828193810E94932C2296AEAD77
:102C0000BFAD22976D937D938D939C931397E98429
:102C1000FA840B851C852D813E814F815885698101
:102C20007A818B819C818BA4A8ACB9ACCAACDBAC9B
:102C30000E94292780913A01811117C0BFEF2B1AFA
:102C40003B0AEDCEE9A0FAA00BA11CA12D8D3E8D73
:102C50004F8D58A1698D7A8D8B8D9C8D8BA4A8ACDE
:102C6000B9ACCAACDBAC0E942927809185068111E2
:102C7000FEC18CE0FE017996A1E9B6E001900D92CB
:102C80008A95E1F780918A06882369F00E94D02412
:102C90001092490180918A06823019F40E9411270E
:102CA00002C010928A0680918506E1C186E0DFC1EC
:102CB00085319105E9F510E0109288060AC082304E
:102CC00091050CF055C0892B09F04EC010E0109210
:102CD000860611111AC00C94220D11E08531910560
:102CE00059F30CF028C18430910509F451C10CF45A
:102CF00005C18231910509F44CC00CF014C18A3031
:102D0000910509F00CC132E03BA7C60102C0880F53
:102D1000991F1A95E2F79C0122213321232B21F0E0
:102D2000B09285060C94220D282A392A0C94220D83
:102D3000863191050CF059C08430910509F4D8C052
:102D400024F58130910509F0BACF10E00093860692
:102D5000C0CF863391050CF084C08C31910509F405
:102D600056C04E9709F453C010E0E0928506B1CFEB
:102D70008230910521F410E0F0928606AACF0397E5
:102D800099F710E0E0928606A4CF8231910541F4D4
:102D900010E010929E06F0929F060093A00699CF35
:102DA000833191058CF48A30910521F4B2E0BBA700
:102DB0000C94220D4197C1F610E010929E060093EC
:102DC0009F06F092A00685CF8331910541F410E073
:102DD00000939E06F0929F061092A0067ACF449729
:102DE00019F610E00093880674CF8035910521F420
:102DF00010E0A09286066DCF81359105D4F585331C
:102E0000910509F0A6CF10E09924939462CF10E0C9
:102E100020E030E040E251E4C301B2010E94913071
:102E20000E9474310E94042E6931E1E07E07B1F006
:102E30003CF46831714009F098CF53E05BA749CF6B
:102E40006C3231E0730739F06D32714009F08DCF8B
:102E500096E09BA73ECF85E08BA73BCFF4E0FBA796
:102E600038CFCC970CF080CF10E066536093A1066A
:102E700030CF8C359105D9F410E020E030E040E20D
:102E800051E4C301B2010E9491300E9474310E944A
:102E9000042E6839A3E07A0739F06939734009F0E4
:102EA00064CF28E02BA715CFE7E0EBA712CF8D3535
:102EB00091057CF48A35910521F410E00093890690
:102EC00008CF8B35910509F04FCF10E0109289069D
:102ED00000CF8D35910521F410E000938706F9CEDF
:102EE0008E35910509F040CF10E010928706F1CEA3
:102EF000E1E0EBA70C94220D13E0F0CE81309105B8
:102F000009F424CF24F4892B09F4E1CE2ECF8230AA
:102F1000910509F431CF039709F434CF26CF4197B7
:102F200009F44BCF22CF8331910509F451CF449757
:102F300009F458CF1ACF8035910509F45ACF8CF493
:102F40008533910509F460CF44F48C31910509F47F
:102F50005FCF4E9709F45CCF08CFCC970CF485CFA8
:102F600004CF8C35910509F488CF4CF48A3591054E
:102F700009F4A4CF8B35910509F4A8CFF6CE8D3591
:102F8000910509F4AACF8E35910509F4AECFEDCEA7
:102F9000F1E0FBA7BACE15E08430910521F48FEF64
:102FA00080938B0696CE85309105BCF481309105D7
:102FB00009F4ABCE34F4892B09F0D7CE00938A06FE
:102FC00088CE8230910519F4F0928A0682CE03975A
:102FD00009F0CBCE00938B067CCE8830910519F496
:102FE00000938C0676CE8930910534F4059709F06C
:102FF000BCCE10928B066DCE8930910519F41092DB
:103000008C0667CE4E9701F3B0CE8430910511F453
:1030100010E0C5CF85309105ACF48130910511F4F5
:103020000C94220D2CF4892B09F09ECE10E0C6CF13
:103030008230910511F410E0C7CF039709F094CEC8
:1030400010E0C8CF8830910511F410E0C9CF893065
:1030500091052CF4059709F087CE10E0CACF89308E
:10306000910511F410E0CBCF4E9729F37DCEC55AD0
:10307000DF4F0FB6F894DEBF0FBECDBFDF91CF910B
:103080001F910F91FF90EF90DF90CF90BF90AF9086
:103090009F908F907F906F905F904F903F902F9078
:1030A0000895CF93DF9323E3829FC0011124EC01A5
:1030B000DD5F42E350E0BE018AEB96E00E944E06DF
:1030C000892B59F41092BA0642E350E06AEB76E09D
:1030D000CE010E94930680E001C081E0DF91CF9194
:1030E000089580E090E00C947C2C1F920F920FB614
:1030F0000F9211242F933F938F939F93AF93BF937E
:1031000080914F0190915001A0915101B0915201D5
:1031100030914E0123E0230F2D3720F40196A11D9D
:10312000B11D05C026E8230F0296A11DB11D2093F5
:103130004E0180934F0190935001A0935101B093A1
:10314000520180914A0190914B01A0914C01B091A4
:103150004D010196A11DB11D80934A0190934B0131
:10316000A0934C01B0934D01BF91AF919F918F916E
:103170003F912F910F900FBE0F901F901895809147
:103180003B01823029F483E080933B010C949B1C2B
:103190000895409118065091190660911A06709191
:1031A0001B068091140690911506A0911606B09109
:1031B0001706840F951FA61FB71F813022EE9207B6
:1031C00024E0A207B10550F48093180690931906E5
:1031D000A0931A06B0931B0680E00895925EA44067
:1031E000B1098093180690931906A0931A06B0931C
:1031F0001B0681E008959B01AC01203283E0380773
:103200004105510520F420E233E040E050E060E069
:1032100070E788E399E30E949A312115310581E036
:103220004807510518F4B90181E02FC02115310577
:1032300088E048075105A8F4DA01C901F3E0B69522
:10324000A79597958795FA95D1F7BC019C01AD019B
:10325000A3E0220F331F441F551FAA95D1F782E028
:1032600014C0DA01C90126E0B695A7959795879510
:103270002A95D1F7BC019C01AD01E6E0220F331F76
:10328000441F551FEA95D1F783E090918100987F04
:10329000892B80938100709389006093880020932C
:1032A000140630931506409316065093170608959A
:1032B0001F920F920FB60F9211248F939F938BB191
:1032C00090911A01907E8F71892B8BB91092B10069
:1032D0009F918F910F900FBE0F901F901895809126
:1032E0006F008D7F80936F00809137018F3F21F4B5
:1032F00090913C0195FF089590E00E9406278091EF
:10330000270182FF02C028980895289A08951F92E5
:103310000F920FB60F9211240F931F932F933F9389
:103320004F935F936F937F938F939F93AF93BF93CD
:10333000CF93DF93EF93FF938091FF058111E6C256
:103340008BB1909167069C71837E892B8BB98BB171
:103350008F7190916706892B8BB980916606809357
:10336000B20082E08093B10081E08093FF05789401
:10337000C091FD05D091FE05209709F08AC090917B
:10338000FC058091FB05981741F0C091FB058BE38C
:10339000C89FE0011124CB52DE4FD093FE05C093AD
:1033A000FD05209709F46EC080913B018330D1F474
:1033B0006BA17CA18DA19EA160931C0670931D063C
:1033C00080931E0690931F060E94FB1880E091E7F1
:1033D000A2E0B0E08093180690931906A0931A0615
:1033E000B0931B068BA59CA5ADA5BEA5AC01BD01E8
:1033F0007595679557954795840F951FA61FB71F1D
:103400008093200690932106A0932206B093230672
:103410004D855E856F857889DB01CA01B595A795D5
:1034200097958795B095A095909581959F4FAF4FB3
:10343000BF4F8093000690930106A0930206B093BD
:1034400003068093040690930506A0930606B093A6
:1034500007068093080690930906A0930A06B09386
:103460000B0640930C0650930D0660930E06709366
:103470000F0610921006109211061092120610926A
:10348000130607C00E946F1980913C0184608093ED
:103490003C01C091FD05D091FE05209709F42DC295
:1034A00028812093670640910006509101066091A3
:1034B00002067091030689819A81AB81BC81840FD9
:1034C000951FA61FB71F8093000690930106A09337
:1034D0000206B0930306181619061A061B068CF589
:1034E000322F30623093670640910C0650910D06E2
:1034F00060910E0670910F06841B950BA60BB70BFF
:103500008093000690930106A0930206B0930306F1
:1035100080913D0190913E01A0913F01B091400109
:1035200022FF04C00197A109B10903C00196A11DA2
:10353000B11D80933D0190933E01A0933F01B09354
:103540004001409104065091050660910606709175
:1035500007068D819E81AF81B885840F951FA61FB8
:10356000B71F8093040690930506A0930606B093B8
:103570000706181619061A061B069CF52091670601
:10358000322F30643093670640910C0650910D063F
:1035900060910E0670910F06841B950BA60BB70B5E
:1035A0008093040690930506A0930606B093070641
:1035B0008091410190914201A0914301B091440159
:1035C00023FF04C00197A109B10903C00196A11D01
:1035D000B11D8093410190934201A0934301B093A8
:1035E0004401409108065091090660910A067091C5
:1035F0000B0689859A85AB85BC85840F951FA61F10
:10360000B71F8093080690930906A0930A06B0930B
:103610000B06181619061A061B069CF5209167065C
:10362000322F30683093670640910C0650910D069A
:1036300060910E0670910F06841B950BA60BB70BBD
:103640008093080690930906A0930A06B0930B0690
:103650008091450190914601A0914701B0914801A8
:1036600024FF04C00197A109B10903C00196A11D5F
:10367000B11D8093450190934601A0934701B093FB
:1036800048018091100690911106A0911206B09108
:1036900013060196A11DB11D80931006909311068B
:1036A000A0931206B09313064D855E856F857889C9
:1036B00084179507A607B70708F00DC120913B01B5
:1036C000243029F50E94C918882309F416C1809175
:1036D0001C0690911D06A0911E06B0911F060BA519
:1036E0001CA52DA53EA5081719072A073B0740F082
:1036F0000E946F1980913C01846080933C01FDC061
:10370000BC01CD01601B710B820B930BDBC04FA57D
:1037100058A969A97AA984179507A607B707C8F514
:103720000E94C918882309F4E8C040911C065091F2
:103730001D0660911E0670911F068BA59CA5ADA568
:10374000BEA5840F951FA61FB71F80931C069093DC
:103750001D06A0931E06B0931F064FA958AD69AD74
:103760007AAD84179507A607B70740F040931C066B
:1037700050931D0660931E0670931F0660911C06F1
:1037800070911D0680911E0690911F060E94FB18E5
:10379000B4C04BA95CA96DA97EA984179507A6079B
:1037A000B70708F47EC084179507A607B70779F511
:1037B00040911C0650911D0660911E0670911F06D7
:1037C0008FA998ADA9ADBAAD481759076A077B070D
:1037D00029F480E091E7A2E0B0E010C04091180623
:1037E0005091190660911A0670911B0680E092EEC6
:1037F000A4E0B0E0841B950BA60BB70B80931806D2
:1038000090931906A0931A06B0931B0676C00E94E7
:10381000C918882309F471C080911C0690911D0677
:10382000A0911E06B0911F064091200650912106DE
:103830006091220670912306481759076A077B0793
:1038400048F44BA55CA56DA57EA5841B950BA60B26
:10385000B70B04C0B695A7959795879580931C06DE
:1038600090931D06A0931E06B0931F068FA198A5E6
:10387000A9A5BAA540911C0650911D0660911E068F
:1038800070911F06481759076A077B0708F076CF23
:1038900080931C0690931D06A0931E06B0931F06EE
:1038A0006DCF6FA978AD89AD9AAD00911C061091CE
:1038B0001D0620911E0630911F06061717072807C0
:1038C0003907D9F060931C0670931D0680931E067D
:1038D00090931F065BCF1092FE051092FD0590910C
:1038E000FC058091FB05981741F08091FB058F5FE7
:1038F000823109F480E08093FB0590916706809106
:103900001A018927809367061092FF05FF91EF91B6
:10391000DF91CF91BF91AF919F918F917F916F91E7
:103920005F914F913F912F911F910F910F900FBE7B
:103930000F901F9018958091270182FF02C0289A4E
:1039400001C0289880913B01833081F480911A0155
:103950008093670680911101880F84508195809330
:10396000660680916F00826080936F00089565E025
:1039700080E090E00E94842C46E350E064E071E037
:1039800081E090E00C949306882309F45AC080E00B
:1039900090E0AAE7B3E48093040190930501A0931B
:1039A0000601B09307018093080190930901A09349
:1039B0000A01B0930B0180930C0190930D01A09329
:1039C0000E01B0930F012AE02093110180931201A0
:1039D00090931301A0931401B093150180E090E03F
:1039E000AAEFB3E48093160190931701A0931801F6
:1039F000B093190180E090EAACE0B7E480931F0136
:103A000090932001A0932101B09322018DEC9CECB6
:103A1000ACECBDE380931B0190931C01A0931D01AE
:103A2000B0931E0188E180931A018DEC9CECACE40C
:103A3000BDE38093230190932401A0932501B093CB
:103A4000260182E0809327011092280180E090E017
:103A5000A8ECB1E48093290190932A01A0932B0153
:103A6000B0932C0180E090E0AAE7B3E480932D01AD
:103A700090932E01A0932F01B093300184E690E043
:103A8000909332018093310180E090E0A0E8BFE3A1
:103A90008093330190933401A0933501B0933601A4
:103AA00089E18093370193E0909338018093390145
:103AB0000C94B71C2DE0829FC00111244CE050E013
:103AC0009E5F0C9493061F93CF93DF93182FEB0107
:103AD0008DE0189FB00111247E5F4CE050E0CE01D4
:103AE0000E944E06892B59F48CE0FE0111928A95B2
:103AF000E9F7BE01812F0E945A1D80E001C081E0DC
:103B0000DF91CF911F9108951F920F920FB60F92E0
:103B100011242F933F934F935F936F937F938F93D2
:103B20009F93AF93BF93EF93FF938091C600813231
:103B300091F028F48831A9F40E94112723C08F3313
:103B400031F08E3771F480913C01826007C0809122
:103B50003C01816003C080913C01886080933C01FE
:103B600011C0E091D40191E09E0F903809F490E0EB
:103B70002091D301921731F0F0E0ED5AFE4F80838F
:103B80009093D401FF91EF91BF91AF919F918F914D
:103B90007F916F915F914F913F912F910F900FBE49
:103BA0000F901F9018951F920F920FB60F9211242D
:103BB0008F939F93EF93FF9380916506E82FF0E03A
:103BC000EB5DF94F90819093C6008F5F803409F4CC
:103BD00080E08093650690912406891305C080914A
:103BE000C1008F7D8093C100FF91EF919F918F91D4
:103BF0000F900FBE0F901F901895E091240691E052
:103C00009E0F903409F490E020916506291305C0B9
:103C100020913C0124FFF8CF0895F0E0EB5DF94FCF
:103C20008083909324068091C10080628093C100BC
:103C30000895CF93C82F86E797E00E9491248C2F98
:103C400090E0FC013197EC30F10548F5E159FF4F68
:103C50000C94BC3184E697E020C08CE497E01DC052
:103C600086E397E01AC087E297E017C081E197E00A
:103C700014C08FEF96E011C08EEE96E00EC082EE7B
:103C800096E00BC083ED96E008C082EB96E005C09D
:103C900083EA96E002C088E996E00E94912485E9D3
:103CA00096E0CF910C949124CF93DF9381E996E035
:103CB0000E949124C4E0D1E0688179818A819B814E
:103CC0000E9440238EE796E00E9491246C817D81C2
:103CD0008E819F810E9440238BE696E00E94912472
:103CE000688579858A859B850E94402388E596E0D2
:103CF0000E9491246D8570E080E090E00E94EA23AC
:103D00008FE396E00E9491246E857F85888999894A
:103D10000E94402382E296E00E9491246A897B8976
:103D20008C899D890E94402385E096E00E94912421
:103D30006E8970E080E090E00E94EA2387EE95E0D3
:103D40000E9491248E890E945E2480EE95E00E945C
:103D500091246BA970E080E090E00E94EA2382EC5D
:103D600095E00E94912420E030E041E655E46B8D1F
:103D70007C8D8D8D9E8D0E94922D0E94402383EA22
:103D800095E00E9491246F8D78A189A19AA10E944B
:103D9000402383E895E00E9491246F89788D898D76
:103DA0009A8D0E9440238AE695E00E9491246DA995
:103DB00070E080E090E00E94EA238BE495E00E94AE
:103DC00091246CA970E080E090E00E94EA2382E3F5
:103DD00095E00E9491246BA1617070E080E090E01A
:103DE0000E94EA2385E195E00E9491246BA16695EB
:103DF000617070E080E090E00E94EA238BEF94E035
:103E00000E9491246BA162FB662760F970E080E05C
:103E100090E00E94EA2389ED94E00E9491246BA136
:103E200063FB662760F970E080E090E00E94EA237F
:103E30008EEB94E00E9491246BA16295617070E01A
:103E400080E090E00E94EA2382EA94E00E949124BC
:103E50006CA170E080E090E00E94EA2383E894E0A7
:103E60000E9491248CA10E945E248BE794E00E9422
:103E700091246DA17EA18FA198A50E9440238EE57B
:103E800094E00E94912469A57AA58BA59CA50E9427
:103E9000402381E494E00E9491246DA57EA580E0FA
:103EA00090E00E94EA2382E294E00E9491246FA5B0
:103EB00078A989A99AA90E94402389E094E0DF911A
:103EC000CF910C9491243F924F925F926F927F9288
:103ED0008F929F92AF92BF92CF92DF92EF92FF921A
:103EE0000F931F93CF93DF93CDB7DEB768970FB6CD
:103EF000F894DEBF0FBECDBF80913C01882309F44A
:103F0000B5C130903C01832D8076F1F186E080933D
:103F10003B0181E094E036FE24C00E94912486EFAC
:103F200093E00E94912489ED93E00E94912484EF14
:103F300091E00E94062787ED93E00E94912485EC92
:103F400093E00E9491248AE893E00E94912480915A
:103F50003C018F7E80933C0180913C0184FFFCCF2B
:103F60000EC00E94912483EE93E00E94912489ED7B
:103F700093E00E94912484EF91E00E9406278091B3
:103F80003C018F7980933C0134FE04C081E0809332
:103F90003A016CC130FEC9C08CE0EDE3F1E0DE0116
:103FA0001D9601900D928A95E1F7E0913B018E2FCD
:103FB00090E088309105D8F4FC01E558FF4F0C944F
:103FC000BC3184E893E011C08DE793E00EC088E730
:103FD00093E00BC082E793E008C08CE693E005C055
:103FE00085E693E002C08EE593E00E94912487E588
:103FF00093E00E9491246E018DE0C80ED11C94E0E4
:10400000A92E91E0B92E8E010F5F1F4F4E01E9E1FD
:104010008E0E911C7801F6016191719181919191BF
:104020006F01F50141905190619071905F010E9484
:104030003C2EA30192010E94922D3701F70160836B
:104040007183828393832091270120FF0BC02BE88B
:1040500032E441E25DE30E949130F70160837183B5
:1040600082839383F4E0EF0EF11CF3016081718190
:10407000828193810E94402385E593E00E949124F0
:10408000C814D90441F68FE493E00E94912485E896
:10409000E82E86E0F82ED12C80912701F70121A58A
:1040A00032A543A554A580FF0DC0658D768D878D03
:1040B00090A10E94932C2BE832E441E25DE30E9440
:1040C000913006C0658D768D878D90A10E94932CCE
:1040D0009B01AC01F80160817181828193810E9412
:1040E000922CF8016083718382839383F80161913C
:1040F0007191819191918F010E944023F2E0DF162E
:1041000021F08DE493E00E949124D39484E0E80EA2
:10411000F11CE3E0DE12C0CF89E493E00E94912419
:1041200080913C018E7F80933C0133FE0EC08091D4
:104130003B01833029F484E080933B0110924901D4
:1041400080913C01877F80933C0132FE7FC0E091EB
:10415000FD05F091FE05309709F471C0C584D68441
:10416000E784F0888091100690911106A0911206C4
:10417000B0911306C81AD90AEA0AFB0A0091FB0596
:10418000FBE30F9F800111240B521E4FC701B601A4
:104190000E943C2EF801258D368D478D50A10E943E
:1041A00091304B015C01F8016585768587859089A2
:1041B0000E943C2E9B01AC01C501B4010E94922DCE
:1041C000F801658F768F878F90A3C586D686E786A0
:1041D000F08A158A168A178A108E118E128E138E07
:1041E000148E12A281E081A30E94BA250E94772535
:1041F0000E94ED2410921C0610921D0610921E06BD
:1042000010921F0660E070E0CB010E94FB1880E076
:1042100091E7A2E0B0E08093180690931906A0936E
:104220001A06B0931B0610921006109211061092F7
:1042300012061092130682E080933B0102C0109296
:104240003B0180913C018B7F80933C0131FE0EC08D
:104250000E94BF188091270181FF03C081E08093F5
:10426000490180913C018D7F80933C0168960FB697
:10427000F894DEBF0FBECDBFDF91CF911F910F919C
:10428000FF90EF90DF90CF90BF90AF909F908F9076
:104290007F906F905F904F903F9008951F920F9284
:1042A0000FB60F9211242F933F934F935F936F9309
:1042B0007F938F939F93AF93BF93EF93FF9386B1B9
:1042C00090E08095909587709927892B91F030998F
:1042D00003C00E9411270DC0319904C080913C0198
:1042E000886005C0329905C080913C01826080934E
:1042F0003C01FF91EF91BF91AF919F918F917F9181
:104300006F915F914F913F912F910F900FBE0F9042
:104310001F9018954F925F926F927F92AF92BF92CB
:10432000CF92DF92EF92FF920F931F93CF93DF9381
:104330008C01EB01FC01458856886788708CAD883C
:10434000BE88CF88D88C9501A601C301B2010E9416
:10435000882D87FF42C0A3019201C301B2010E94D0
:1043600091302B013C0180911F0190912001A0917F
:104370002101B0912201BC01CD0190589B01AC01FB
:104380000E94932CF801258D368D478D50A10E94F7
:1043900091309B01AC01C301B2010E94922C0E949A
:1043A00030317B018C019B01AC01B501C6010E943B
:1043B000882D87FF02C0750186019701A801B5010C
:1043C000C6010E94882D882341F0C701D8018D8B3A
:1043D0009E8BAF8BB88F81E089A3DF91CF911F9126
:1043E0000F91FF90EF90DF90CF90BF90AF907F90B4
:1043F0006F905F904F9008954F925F926F927F926F
:104400008F929F92AF92BF92CF92DF92EF92FF92E4
:104410000F931F93CF93DF93CDB7DEB762970FB69D
:10442000F894DEBF0FBECDBF9A8B898B2A013B016A
:1044300048015901FC0167A970AD81AD92AD0E94A0
:104440003A2E6B017C01A30192010E9491300E94DF
:10445000712D0E940B2E2B013C01E989FA8963A37F
:1044600074A385A396A3A5019401C701B6010E9478
:1044700091300E94712D0E940B2E4B015C01E98945
:10448000FA8967A370A781A792A723A534A545A59C
:1044900056A5A2E3B0E00E94C2310E943C2E20E06B
:1044A00030E040E752E40E9491300E94042E69837C
:1044B0007A838B839C830E943C2E6D837E838F83C3
:1044C0009887C301B2010E943A2E2B013C01A7013B
:1044D0009601C701B6010E9491306B017C01A301D6
:1044E0009201C301B2010E94913069877A878B875C
:1044F0009C872D813E814F815885CA01B9010E9458
:10450000932C6D877E878F87988B29853A854B857D
:104510005C85C701B6010E94922C2D853E854F8592
:1045200058890E94922D0E94712D0E94042E2B0109
:104530003C01C501B4010E943A2E9B01AC010E94CE
:1045400091304B015C01A70196010E94922C6B01F6
:104550007C0169817A818B819C8190958095709591
:1045600061957F4F8F4F9F4F0E943C2E9B01AC0166
:104570000E94932C9B01AC01C701B6010E94922DB1
:104580000E94772EE989FA89C584D684E784F08869
:10459000A7019601241935094609570929833A8349
:1045A0004B835C830E94042E29813A814B815C817C
:1045B000261B370B480B590BDA01C90157FF3BC0CB
:1045C000C701B6010E943C2E2D853E854F85588936
:1045D0000E94913029853A854B855C850E94922CFA
:1045E000A50194010E94932C4B015C0120E030E076
:1045F00040E850E46D817E818F8198850E949130E2
:104600009B01AC01C501B4010E94922D0E94712D45
:104610000E94042E97FF03C060E070E0CB012601EA
:1046200037016C157D058E059F0514F42B013C01A7
:1046300080E090E0DC01E989FA8947A650AA61AAE6
:1046400072AA480E591E6A1E7B1E43AA54AA65AA66
:1046500076AA62960FB6F894DEBF0FBECDBFDF918B
:10466000CF911F910F91FF90EF90DF90CF90BF906F
:10467000AF909F908F907F906F905F904F90089534
:104680008F929F92AF92BF92CF92DF92EF92FF9262
:104690000F931F93CF93DF93CDB7DEB72A970FB653
:1046A000F894DEBF0FBECDBF6B017C0120E030E08F
:1046B000A9010E94882D87FF07C08DE20E94FD1D81
:1046C000F7FAF094F7F8F09400913801102F1230B7
:1046D00060F020E030E048EC52E4C701B6010E94EF
:1046E00091306B017C011250F2CF00FF0AC020E034
:1046F00030E040E251E4C701B6010E9491306B0105
:104700007C0120E030E040E05FE3C701B6010E9499
:10471000932C0E94042EE1E0F0E0EC0FFD1FE00F6F
:10472000F11D2EE2208310E03AE0832E912CA12C83
:10473000B12C611571058105910511F480E315C057
:10474000101301C01F5FEE24E394F12CEC0EFD1E4C
:10475000E10EF11CA50194010E949A31605DF70100
:104760006083B901CA011F5FE4CF101748F4E1E08C
:10477000F0E0EC0FFD1FE10FF11D80831F5FF5CF0F
:1047800010130BC081E0810FE1E0F0E0EC0FFD1FA2
:10479000E80FF11D1E5F80E38083112341F0FE01CD
:1047A000E10FF11D80810E94FD1D1150F6CF2A9668
:1047B0000FB6F894DEBF0FBECDBFDF91CF911F9132
:1047C0000F91FF90EF90DF90CF90BF90AF909F90B0
:1047D0008F9008958F929F92AF92BF92CF92DF9267
:1047E000EF92FF92CF93DF93CDB7DEB72A970FB644
:1047F000F894DEBF0FBECDBF6B017C0197FF0BC0ED
:104800008DE20E94FD1DF094E094D094C094C11CF0
:10481000D11CE11CF11CC701B601CD28CE28CF2840
:1048200099F480E32A960FB6F894DEBF0FBECDBF91
:10483000DF91CF91FF90EF90DF90CF90BF90AF903E
:104840009F908F900C94FD1D20E04AE0842E912CC7
:10485000A12CB12CFF24F394F20ECC24C394D12CC0
:10486000CC0EDD1EC20ED11CA50194010E949A310E
:10487000605DF6016083B901CA012F2D61157105D4
:104880008105910539F7FF2041F0FE01EF0DF11D83
:1048900080810E94FD1DFA94F6CF2A960FB6F894F7
:1048A000DEBF0FBECDBFDF91CF91FF90EF90DF90C5
:1048B000CF90BF90AF909F908F900895EF92FF920E
:1048C0000F931F93CF93DF93CDB7DEB728970FB623
:1048D000F894DEBF0FBECDBF9E012F5F3F4F790121
:1048E0008E01075F1F4FF901982F91709193869564
:1048F000E017F107C9F7F80182918F01805D0E94EE
:10490000FD1D0E151F05B9F728960FB6F894DEBFEA
:104910000FBECDBFDF91CF911F910F91FF90EF9010
:104920000895CF93DF93FC018491EF0121968823B2
:1049300021F00E94FD1DFE01F7CFDF91CF91089578
:104940000F931F93CF93C0E08C2F0E9451188111B9
:1049500002C08AE01CC08091BA068823D1F00AEB1D
:1049600016E0F80181918F01882319F00E94FD1D46
:10497000F8CF80913B01863049F00E94E70C81110D
:1049800006C08EE797E00E94912403C08CE00E944D
:10499000191ECF5FC230C1F6CF911F910F910895BC
:1049A000CF93CBE39091FC058091FB05981749F0DC
:1049B0008091FB05C89FC00111248B529E4F892B0B
:1049C00021F480913B01833031F40E94631F809178
:1049D0003A01882339F3CF9108954F925F926F92F5
:1049E0007F928F929F92AF92BF92CF92DF92EF927F
:1049F000FF920F931F93CF93DF93F090FB05C0E0DE
:104A0000D0E08BE3E82E8091FC05F81609F441C054
:104A10008F2D90E0E89E9001E99E300D1124A901B0
:104A20004B525E4F6A01209761F129A1211104C008
:104A3000FA0121A1222329F189889A88AB88BC88B0
:104A4000E89EF001E99EF00D1124EB52FE4FA50106
:104A50009401658976898789908D0E94922D2B011A
:104A60003C01A50194016D897E898F89988D0E94F2
:104A7000922DAB01BC0193018201CE010E94FC2169
:104A800019A2F394F2E1FF1611F0E601BCCFF12C6C
:104A9000FCCFC988DA88EB88FC88A701960160E022
:104AA00070E0CB010E94922D4B015C01A7019601A1
:104AB0006D897E898F89988D0E94922DAB01BC01F2
:104AC00095018401CE010E94FC2119A2DF91CF91B2
:104AD0001F910F91FF90EF90DF90CF90BF90AF901C
:104AE0009F908F907F906F905F904F900895EF927E
:104AF000FF920F931F93CF93DF93C091FB0510E0BC
:104B0000D0E080E090E00BE32091FC05C217D9F0E3
:104B10000C9F90011124A9014B525E4F7A0100971E
:104B200041F0FC0122A1211104C0612F7D2F0E94C0
:104B30008A21CF5FC23129F0812F9D2F1E2DDF2DBD
:104B4000E3CFC0E0F9CF009771F0FC0122A1211161
:104B50000AC0612F7D2FDF91CF911F910F91FF90A0
:104B6000EF900C948A21DF91CF911F910F91FF90CC
:104B7000EF9008952F923F924F925F926F927F92A3
:104B80008F929F92AF92BF92CF92DF92EF92FF925D
:104B90000F931F93CF93DF931091FC0540901F015B
:104BA00050902001609021017090220177FA70945A
:104BB00077F87094A12CB12CC0E0D0E08BE3C82E24
:104BC0008091FB05181709F46CC0111101C012E1A6
:104BD0001150C19EC00111249C012B523E4F19015E
:104BE000209719F45E01E101EBCFA114B104D1F3D8
:104BF000D98CEA8CFB8C0C8D2D2D3E2D4F2D502FFA
:104C00006D897E898F89988D0E94882D882351F324
:104C10008AA181113BC0F50185889688A788B08C50
:104C2000A50194016D2D7E2D8F2D902F0E94AA2F0E
:104C3000181664F5A5019401C501B4010E949130D4
:104C40004B015C01A3019201C301B2010E94932CAC
:104C50002D8D3E8D4F8D58A10E9491309B01AC014E
:104C6000C501B4010E94922C0E9430314B015C01BD
:104C70009B01AC016D2D7E2D8F2D902F0E94882DD4
:104C800087FD04C0D82CE92CFA2C0B2D8D2D9E2DE0
:104C9000AF2DB02F8D8B9E8BAF8BB88FF1E0F9A32A
:104CA000A1CFDF91CF911F910F91FF90EF90DF90F7
:104CB000CF90BF90AF909F908F907F906F905F90BC
:104CC0004F903F902F9008958F929F92AF92BF92F6
:104CD000CF92DF92EF92FF920F931F93CF93DF93C8
:104CE000EAE3F1E0C384D484E584F6848780908489
:104CF000A184B2846381748185819681E9E6F6E0BE
:104D0000608371838283938384829582A682B78233
:104D1000C086D186E286F386C5E8D6E00E943C2EA6
:104D200004E011E0F80120813181428153810E9429
:104D3000922D6C877D878E879F87C501B4010E9465
:104D40003C2EF80124813581468157810E94922DA5
:104D5000688B798B8A8B9B8BC701B6010E943C2E96
:104D6000F80120853185428553850E94922D6C8BF8
:104D70007D8B8E8B9F8BDF91CF911F910F91FF9039
:104D8000EF90DF90CF90BF90AF909F908F9008955D
:104D90006115710581059105C1F16A3071058105C3
:104DA000910548F425E02A95F1F70000615071095A
:104DB00081099109EDCF643671058105910548F4AB
:104DC000E5E3EA95F1F700006A507109810991095C
:104DD000DFCF683EF3E07F078105910558F4EFE8E7
:104DE000F1E03197F1F700C00000645671098109C4
:104DF0009109CECFEFE9FFE03197F1F700C0000055
:104E0000685E734081099109C3CF0895009741F00E
:104E1000EFE9FFE03197F1F700C000000197F6CF0E
:104E2000089580913C0184FD13C080913C01806114
:104E300080933C012C98439880913B0183508330B0
:104E400038F480913C01806280933C010C946F198E
:104E500008952F923F924F925F926F927F928F921E
:104E60009F92AF92BF92CF92DF92EF92FF920F93F9
:104E70001F93CF93DF93CDB7DEB7E1970FB6F894CA
:104E8000DEBF0FBECDBF2B013C0129833A834B838C
:104E90005C83ED8AFE8A0F8B188FA98ABA8ACB8A27
:104EA000DC8A89A280913B01873009F4F3C30E9418
:104EB000631F80913A018111EDC38091FB05209120
:104EC000680629AB821799F38091FC05282E312CB6
:104ED0004091040150910501609106017091070114
:104EE0004D835E836F8378879A01AB01C301B20162
:104EF0000E9491300E945E306DA37EA38FA398A77D
:104F0000609108017091090180910A0190910B0153
:104F100069877A878B879C879B01AC0169817A813D
:104F20008B819C810E9491300E945E3069A77AA794
:104F30008BA79CA780910C0190910D01A0910E016F
:104F4000B0910F018D879E87AF87B88B9C01AD0113
:104F50006D897E898F89988D0E9491300E945E3084
:104F60006DA77EA78FA798AB8BE3829DF001839DF1
:104F7000F00D1124EB52FE4F108280916906909142
:104F80006A06A0916B06B0916C062DA13EA14FA1BF
:104F900058A5281739074A075B0714F424E0208333
:104FA00000916D0610916E0620916F06309170068B
:104FB00049A55AA56BA57CA5401751076207730741
:104FC0005CF44BE3429DF001439DF00D1124EB5244
:104FD000FE4F408148604083C0907106D0907206B9
:104FE000E0907306F09074064DA55EA56FA578A9B4
:104FF0004C155D056E057F055CF44BE3429DF001A9
:10500000439DF00D1124EB52FE4F408140614083DF
:105010004DA15EA16FA178A5481B590B6A0B7B0BB4
:1050200049835A836B837C8377FF0BC0882799273A
:10503000DC01841B950BA60BB70B89839A83AB838A
:10504000BC83EBE3E29DC001E39D900D1124FC01C4
:10505000EB52FE4F89819A81AB81BC81818392831F
:10506000A383B48389A49AA4ABA4BCA4801A910A94
:10507000A20AB30A95018401B7FE07C000271127D1
:105080009801081919092A093B09EBE3E29DC001BF
:10509000E39D900D1124FC01EB52FE4F0583168316
:1050A000278330878DA59EA5AFA5B8A98C199D092A
:1050B000AE09BF096C017D012C013D01B7FF07C09E
:1050C000442455243201481A590A6A0A7B0AEBE340
:1050D000E29DC001E39D900D1124FC01EB52FE4FB7
:1050E000418652866386748689819A81AB81BC81B0
:1050F00080179107A207B30710F4D901C80189836B
:105100009A83AB83BC8384159505A605B70520F467
:1051100049825A826B827C828BE3829D8001839DCF
:10512000100D11240B521E4F89819A81AB81BC81D5
:10513000F80185879687A787B08B892B8A2B8B2BC5
:1051400009F423C2CB01BA010E943C2E2D813E817D
:105150004F8158850E94922D698F7A8F8B8F9C8FFB
:10516000C501B4010E943C2E29853A854B855C859A
:105170000E94922D6D8F7E8F8F8F98A3C701B601ED
:105180000E943C2E2D853E854F8558890E94922D88
:105190004B015C01298D3A8D4B8D5C8DCA01B901A3
:1051A0000E9491306B017C012D8D3E8D4F8D58A159
:1051B000CA01B9010E9491309B01AC01C701B6013F
:1051C0000E94932C6B017C01A5019401C501B401DF
:1051D0000E9491309B01AC01C701B6010E94932C43
:1051E0000E9430316D8B7E8B8F8B988FD8015D96AE
:1051F0006D937D938D939C9390979B01AC0160E0A0
:1052000070E080E89FE30E94922D2B013C01B9A140
:10521000B11109C09B01AC0169897A898B899C898C
:105220000E9491300AC029893A894B895C8960E0E3
:1052300070E080E89FE30E94922D6B017C019B014E
:10524000AC016D897E898F89988D0E9491306D8324
:1052500079878D87998B8BE3829D8001839D100DCB
:1052600011240B521E4FCB01AD85B989F801818BFA
:10527000928BA38BB48B69817A818B819C810E94F4
:105280003C2E69A37AA38BA39CA39B01AC01C7010D
:10529000B6010E9491300E94712D0E940B2ED80100
:1052A000D7966D937D938D939C93DA9720911F01F0
:1052B00030912001409121015091220129833A83AC
:1052C0004B835C8329A13AA14BA15CA1C301B2012C
:1052D0000E94913029813A814B815C810E949130FA
:1052E00020E030E84BE355E40E94922D0E94712D9E
:1052F0000E94042ED8019B966D937D938D939C9371
:105300009E97A3019201698D7A8D8B8D9C8D0E9451
:105310009130698F7A8F8B8F9C8FA30192016D8D55
:105320007E8D8F8D98A10E9491306D8F7E8F8F8F93
:1053300098A3A3019201C501B4010E9491302B01F1
:105340003C019091FC058091FB05981709F457C02A
:10535000E0908106F0908206009183061091840609
:1053600020E030E0A901B701C8010E94AA2F181659
:105370000CF045C08091750690917606A091770655
:10538000B0917806BC01CD019058298D3A8D4B8D96
:105390005C8D0E9491304B015C0120917906309127
:1053A0007A0640917B0650917C066D8D7E8D8F8DA7
:1053B00098A10E9491309B01AC01C501B4010E94EB
:1053C000922C4B015C0120917D0630917E0640912C
:1053D0007F0650918006C301B2010E9491309B016B
:1053E000AC01C501B4010E94922C4B015C0123E386
:1053F00033E343E75FE30E94882D87FDECC0E12C97
:10540000F12C00E010E08BE3829DF001839DF00D14
:105410001124EB52FE4FC701D801818F928FA38FC9
:10542000B48F69817A818B819C8190589B01AC01FA
:105430000E94932C2D893E894F89588D0E9491306E
:105440009B01AC0160E070E0CB010E94922C0E94B5
:1054500030315B016C019B01AC01B701C8010E94B6
:10546000882D87FD04C075013C2D2D2D02C0302FE5
:10547000212F8BE3829D8001839D100D11240B52FF
:105480001E4FC701A32FB22FF801858B968BA78BD8
:10549000B08F9501A6016D8179858D8599890E94CE
:1054A000882D18162CF081E0D80192968C9302C0BA
:1054B000F80112A28BE3829DF001839DF00D11246F
:1054C000EB52FE4F81E081A3298D3A8D4B8D5C8D8F
:1054D00020937506309376064093770650937806AE
:1054E0004D8D5E8D6F8D78A14093790650937A062D
:1054F00060937B0670937C0640927D0650927E06F8
:1055000060927F06709280068D819985AD85B989FC
:105510008093810690938206A0938306B0938406BD
:1055200059A95093FC058091FC058F5F823109F4E5
:1055300080E0809368066DA17EA18FA198A56093FD
:10554000690670936A0680936B0690936C0689A532
:105550009AA5ABA5BCA580936D0690936E06A0930B
:105560006F06B09370062DA53EA54FA558A92093B0
:1055700071063093720640937306509374060E942E
:10558000BA250E9477250E94ED2480913B0181116C
:1055900003C082E080933B0180914901882309F494
:1055A00079C0E1960FB6F894DEBF0FBECDBFDF9194
:1055B000CF911F910F91FF90EF90DF90CF90BF9010
:1055C000AF909F908F907F906F905F904F903F90A3
:1055D0002F900C94BF189701A8016D8179858D8556
:1055E00099890E94AA2F181624F0ED80F9840D8560
:1055F000198923E333E343E75FEBC501B4010E945C
:10560000AA2F18160CF0FFCEA501940160E070E0FF
:1056100080E89FE30E94922C20E030E040E05FE3CE
:105620000E9491300E9430314B015C012091230196
:1056300030912401409125015091260169817A81A0
:105640008B819C810E949130A50194010E94913030
:1056500069A37AA38BA39CA3A501940160E070E0E9
:1056600080E89FE30E94922C9B01AC0169A17AA182
:105670008BA19CA10E94922D0E9430315B016C0194
:105680009701A8010E94AA2F18160CF4BCCE750130
:105690008601B9CEE1960FB6F894DEBF0FBECDBF3E
:1056A000DF91CF911F910F91FF90EF90DF90CF90FE
:1056B000BF90AF909F908F907F906F905F904F9032
:1056C0003F902F9008958F929F92AF92BF92CF926A
:1056D000DF92EF92FF920F931F93CF93DF937C01A2
:1056E0006B01DC01CC91D0E0FE01E654F94F8081E2
:1056F0008D3229F4EF012296818101E009C08B32BD
:1057000019F0C554D94F03C0EF012296818100E002
:10571000912CF0E010E020E030E0A9015E01E0ED26
:10572000E80FEA30D0F4FF5FF93098F4911011508F
:10573000A5E0B0E00E94C231DC01CB01880F991FC7
:10574000AA1FBB1F9C01AD012E0F311D411D511D14
:105750000AC0911008C01F5F06C0EE3F41F49110CF
:1057600006C0992493942196D5018C91D7CFFF231D
:1057700009F450C0CA01B9010E943A2E4B015C01E4
:1057800020E030E0A9010E94882D882349F11F3FC5
:1057900064F42AE037ED43E25CE3C501B4010E9402
:1057A00091304B015C011E5FF2CF1F3F59F42DEC8D
:1057B0003CEC4CEC5DE3C501B4010E9491304B011F
:1057C0005C010EC0112361F020E030E040E251E4C2
:1057D000C501B4010E9491304B015C011150F2CF20
:1057E000002351F0B7FAB094B7F8B094F601808274
:1057F0009182A282B38206C0D6018D929D92AD9213
:10580000BC921397CA5BD640C150F701C08381E0B8
:1058100090E002C080E090E0DF91CF911F910F9166
:10582000FF90EF90DF90CF90BF90AF909F908F90C0
:105830000895CF93DF93DC01EA01E881F0E0E654BC
:10584000F94F90819923A1F09C9391549A3120F0C3
:1058500082E0809385060CC0CA0128812F5F2883CF
:105860000E94632B009739F421E02093850605C040
:1058700080E090E002C081E090E0DF91CF91089558
:10588000789484B5826084BD84B5816084BD85B51B
:10589000826085BD85B5816085BDEEE6F0E08081E2
:1058A00081608083E1E8F0E0108280818260808303
:1058B000808181608083E0E8F0E080818160808386
:1058C000E1EBF0E0808184608083E0EBF0E08081B8
:1058D00081608083EAE7F0E080818460808380815A
:1058E0008260808380818160808380818068808302
:1058F0001092C1000E94CF06F999FECF92BD81BDE2
:10590000F89A992780B50895262FF999FECF1FBAE6
:1059100092BD81BD20BD0FB6F894FA9AF99A0FBED8
:10592000019608955058BB27AA270E94AA2C0C94D0
:10593000442F0E940B2F38F00E94122F20F039F4D0
:105940009F3F19F426F40C94E12E0EF4E095E7FB4A
:105950000C94B22EE92F0E94692F58F3BA176207F0
:1059600073078407950720F079F4A6F50C94A32F0C
:105970000EF4E0950B2EBA2FA02D0B01B90190016A
:105980000C01CA01A0011124FF27591B99F0593FAE
:1059900050F4503E68F11A16F040A22F232F342FF6
:1059A0004427585FF3CF469537952795A795F04044
:1059B0005395C9F77EF41F16BA0B620B730B840B59
:1059C000BAF09150A1F0FF0FBB1F661F771F881F11
:1059D000C2F70EC0BA0F621F731F841F48F4879569
:1059E00077956795B795F7959E3F08F0B0CF93955B
:1059F000880F08F09927EE0F9795879508950E94D4
:105A00000B2F60F080E891E009F49EEF0E94122FC6
:105A100028F040E851E071F45EEF0CC00C94E12EE8
:105A20000C94A32FE92FE0780E94692F40F3092EF0
:105A3000052AB1F3261737074807590738F00E2E05
:105A400007F8E02569F0E025E0640AC0EF6307F895
:105A5000009407FADB01B9019D01DC01CA01AD0127
:105A6000EF930E94A92D0E94442F0E94422D5F9126
:105A7000552339F02BED3FE049E450FD49EC0C94FF
:105A8000932C0895DF93DD27B92FBF7740E85FE3BC
:105A90001616170648075B0718F4D92F0E941C300A
:105AA0009F938F937F936F930E947031E6E0F1E0B4
:105AB0000E94E42E0E94442F2F913F914F915F91BD
:105AC0000E94A430DD2351F09058A2EA2AED3FE075
:105AD00049EC5FE3D0785D270E94AA2CDF910C94FB
